:100000000C9434000C9451000C9451000C94510049
:100010000C9451000C9451000C9451000C9451001C
:100020000C9451000C9451000C9451000C9451000C
:100030000C9451000C9451000C944D020C945100FE
:100040000C9451000C9451000C949B020C945100A0
:100050000C9451000C9451000C9451000C945100DC
:100060000C9451000C94510011241FBECFEFD8E026
:10007000DEBFCDBF12E0A0E0B1E0E0EEF3E102C0F0
:1000800005900D92A031B107D9F724E0A0E1B2E0CC
:1000900001C01D92A531B207E1F70E9470010C94D6
:1000A000EE090C940000ECE7F0E08081806480832E
:1000B000EAE7F0E08081876880830895ECE7F0E06C
:1000C0009081907F90839081892B80838FE193E052
:1000D0000197F1F700C00000EAE7F0E0808180645A
:1000E0008083808184FFFDCF8091780060917900CA
:1000F00070E0762F6627680F711D6F5F7F4F072EA8
:10010000000C880B990B0E945D0420E030E04AEF60
:1001100053E40E94E90420E030E040E85AE30E9402
:10012000E90420E030E040E450E40E9447030E94EC
:100130002504CB010895BC01990F880B990B0E94EF
:100140005D0420E030E048EC52E40E94B3032AE969
:1001500039E949E95EE30E9446039B01AC0160E096
:1001600070E080EA91E40E94B3030E942504CB0171
:10017000089560E875E280E090E00E940D03089524
:10018000249A2C9A2FEF8BE792E9215080409040DF
:10019000E1F700C00000089548E050E080E00AC0A8
:1001A00095E09A95F1F700002F5F3F4F283C31050D
:1001B00019F426C020E030E01C9BF2CF283C31052A
:1001C000ECF490EA9A95F1F7880F1C9B0CC08160C3
:1001D0000AC095E09A95F1F700002F5F3F4F283C49
:1001E000310519F40DC020E030E01C99F2CF283C15
:1001F000310524F441505109E9F608958FEF08952F
:100200008FEF0895249A2C9A0895249808951C99A4
:10021000FECF1C9BFECF1C99FECF08952C982FEF8C
:1002200080EE90E0215080409040E1F700C0000057
:100230002C9A2AE12A95F1F700C0089582E00E94E5
:100240005E000E949B009F938F9387E091E09F93B5
:100250008F930E94CC050F900F900F900F900895F0
:10026000EF92FF920F931F93CF93DF9381E00E9451
:100270005E00F82EE92E0E940E010E9405010E94E8
:1002800007010E94CC00C82F0E94CC00D82F0E94EA
:10029000CC00182F0E94CC00082F0E94CC000E9496
:1002A0000201EF92FF921F920F931F921F931F92D2
:1002B000DF931F92CF938EE091E09F938F930E94E4
:1002C000CC058DB79EB70C960FB6F8949EBF0FBEA7
:1002D0008DBFDF91CF911F910F91FF90EF90089507
:1002E0000E94B9000E9474020E9482020E94C00013
:1002F0000E9453007894C0E00F2EF2E3FF2EF02D01
:10030000DDEC0F2EF4EBCF2ED12CF02D0F2EFAEAD0
:10031000EF2EF02D80910904882309F4B2C080915A
:100320000904815080930904FC9E800111240B5E16
:100330001D4F62E371E0C8010E947805892B11F41A
:100340005A9A90C06EE371E0C8010E947805892B2B
:1003500011F45A9887C06BE471E0C8010E947805D7
:10036000892B11F45C9A7EC069E571E0C8010E9496
:100370007805892B11F45C9875C068E671E0C801B6
:100380000E947805892B11F45D9A6CC067E771E0D3
:10039000C8010E947805892B11F45D9863C067E855
:1003A00071E0C8010E947805892B11F45E9A5AC049
:1003B00067E971E0C8010E947805892B11F45E9805
:1003C00051C068EA71E0C8010E947805892B11F4D8
:1003D0005F9A48C064EB71E0C8010E947805892BE0
:1003E00011F45F983FC061EC71E0C8010E9478058C
:1003F000892B21F48BB1846F8BB934C06EEC71E022
:10040000C8010E947805892B21F48BB18B708BB9C0
:1004100029C06CED71E0C8010E947805892B21F498
:100420008BB184678BB91EC06EEE71E0C8010E946B
:100430007805892B21F48BB18B788BB913C061E0DF
:1004400072E0C8010E947805892B19F4F601E08258
:1004500009C068E072E0C8010E947805892B11F498
:10046000F601108291E09C0F9D9FC12D1124C6952D
:10047000C695C695CC0F8C2F880F880FC80F9C1B74
:10048000C92F80910601882309F444CF10920601F8
:100490000E9430010E941E013DCF1F920F920FB6A5
:1004A0000F9211242F938F939F938091100290911C
:1004B0001102019690931102809310028091100214
:1004C000909111028C3D95403CF0109211021092D7
:1004D000100281E0809306019F918F912F910F90E0
:1004E0000FBE0F901F90189584B5826084BD85B5AE
:1004F000836085BD89EF87BDEEE6F0E08081826094
:1005000080830895239A539AE0EBF0E08081836A18
:100510008083E1EBF0E08081816080831092B30002
:100520001092B4000895E0ECF0E0908195FFFDCFCB
:100530008093C60008951F920F920FB60F92112458
:100540002F933F934F935F936F937F938F939F93DB
:10055000AF93BF93EF93FF938091C60080931402F3
:1005600080911302823308F040C0909109049B30BF
:10057000E0F5909114029D3021F0909114029A3090
:1005800019F59091120222E3929FF0011124EB5E83
:10059000FD4FE80FF11D10821092130280910904A3
:1005A0008F5F809309049F5F8DEC989F812D1124AC
:1005B000869586958695880F282F220F220F820F09
:1005C000981B9093120211C0E091120291E0980FD3
:1005D000909313029091140222E3E29FF001112400
:1005E000EB5EFD4FE80FF11D9083809114020E9495
:1005F000930281E080930A04FF91EF91BF91AF9144
:100600009F918F917F916F915F914F913F912F912A
:100610000F900FBE0F901F901895CF92DF92EF9220
:10062000FF926B017C0160E070E083E992E00E9440
:100630008105E1ECF0E0808188698083E2ECF0E004
:1006400080818660808360E472E48FE090E0A7019F
:1006500096010E945605DA01C9010197A109B10965
:10066000892F9A2FAB2FBB278093C5002150209351
:10067000C4008091C6008FE99FE00197F1F700C0A8
:100680000000FF90EF90DF90CF9008955058BB2767
:10069000AA270E945E030C94AF040E94A10438F0C4
:1006A0000E94A80420F039F49F3F19F426F40C941A
:1006B0009E040EF4E095E7FB0C949804E92F0E9449
:1006C000C00458F3BA17620773078407950720F030
:1006D00079F4A6F50C94E2040EF4E0950B2EBA2FF3
:1006E000A02D0B01B90190010C01CA01A001112438
:1006F000FF27591B99F0593F50F4503E68F11A16E4
:10070000F040A22F232F342F4427585FF3CF469574
:1007100037952795A795F0405395C9F77EF41F1696
:10072000BA0B620B730B840BBAF09150A1F0FF0F60
:10073000BB1F661F771F881FC2F70EC0BA0F621F4C
:10074000731F841F48F4879577956795B795F7953C
:100750009E3F08F0B0CF9395880F08F09927EE0FD1
:100760009795879508950E94C7030C94AF040E9443
:10077000A80458F00E94A10440F029F45F3F29F03A
:100780000C94980451110C94E3040C949E040E9460
:10079000C00468F39923B1F3552391F3951B550BCE
:1007A000BB27AA2762177307840738F09F5F5F4F44
:1007B000220F331F441FAA1FA9F335D00E2E3AF083
:1007C000E0E832D091505040E695001CCAF72BD09B
:1007D000FE2F29D0660F771F881FBB1F26173707EC
:1007E0004807AB07B0E809F0BB0B802DBF01FF271E
:1007F00093585F4F3AF09E3F510578F00C9498045F
:100800000C94E3045F3FE4F3983ED4F38695779528
:100810006795B795F7959F5FC9F7880F911D9695D6
:10082000879597F90895E1E0660F771F881FBB1F32
:10083000621773078407BA0720F0621B730B840BDF
:10084000BA0BEE1F88F7E09508950E942C04689477
:10085000B1110C94E30408950E94C80488F09F57D6
:1008600098F0B92F9927B751B0F0E1F0660F771FD4
:10087000881F991F1AF0BA95C9F714C0B13091F0CA
:100880000E94E204B1E008950C94E204672F782FEF
:100890008827B85F39F0B93FCCF38695779567958F
:1008A000B395D9F73EF490958095709561957F4FFB
:1008B0008F4F9F4F0895E89409C097FB3EF49095A1
:1008C0008095709561957F4F8F4F9F4F9923A9F029
:1008D000F92F96E9BB279395F695879577956795B8
:1008E000B795F111F8CFFAF4BB0F11F460FF1BC0FC
:1008F0006F5F7F4F8F4F9F4F16C0882311F096E98F
:1009000011C0772321F09EE8872F762F05C066233C
:1009100071F096E8862F70E060E02AF09A95660FF5
:10092000771F881FDAF7880F9695879597F90895AE
:1009300097F99F6780E870E060E008959FEF80EC92
:10094000089500240A941616170618060906089535
:1009500000240A9412161306140605060895092E9B
:100960000394000C11F4882352F0BB0F40F4BF2B0A
:1009700011F460FF04C06F5F7F4F8F4F9F4F08954A
:1009800057FD9058440F551F59F05F3F71F0479540
:10099000880F97FB991F61F09F3F79F08795089525
:1009A000121613061406551FF2CF4695F1DF08C044
:1009B000161617061806991FF1CF86957105610561
:1009C00008940895E894BB2766277727CB0197F909
:1009D00008950E94FC040C94AF040E94A10438F016
:1009E0000E94A80420F0952311F00C9498040C9414
:1009F0009E0411240C94E3040E94C00470F3959F9C
:100A0000C1F3950F50E0551F629FF001729FBB2705
:100A1000F00DB11D639FAA27F00DB11DAA1F649FA1
:100A20006627B00DA11D661F829F2227B00DA11D54
:100A3000621F739FB00DA11D621F839FA00D611DDA
:100A4000221F749F3327A00D611D231F849F600DFB
:100A5000211D822F762F6A2F11249F5750409AF024
:100A6000F1F088234AF0EE0FFF1FBB1F661F771FB0
:100A7000881F91505040A9F79E3F510580F00C947B
:100A800098040C94E3045F3FE4F3983ED4F3869516
:100A900077956795B795F795E7959F5FC1F7FE2B1B
:100AA000880F911D9695879597F90895A1E21A2EC2
:100AB000AA1BBB1BFD010DC0AA1FBB1FEE1FFF1F02
:100AC000A217B307E407F50720F0A21BB30BE40B52
:100AD000F50B661F771F881F991F1A9469F7609599
:100AE0007095809590959B01AC01BD01CF01089553
:100AF000FB01DC018D91019080190110D9F3990B54
:100B000008950F931F93CF93DF93009731F46115EE
:100B1000710519F480E090E03AC08B01EC016EE0C1
:100B200070E081E090E00E94C307FC01892B91F303
:100B300080E883830115110571F01387028781E82E
:100B4000838380910B0490910C04892B21F4F09302
:100B50000C04E0930B042097C9F0D187C0878381F0
:100B60008260838380910D0490910E04892B71F42F
:100B7000F0930E04E0930D0480910F049091100403
:100B8000892B21F4F0931004E0930F04CF01DF913F
:100B9000CF911F910F910895A0E0B0E0E2EDF5E054
:100BA0000C94C709AE014B5F5F4FFA0161917191DF
:100BB000AF0180910D0490910E040E94E205E2E0E5
:100BC0000C94E309ABE0B0E0E8EEF5E00C94B70973
:100BD0006C017B018A01FC0117821682838181FFEF
:100BE000CCC1CE0101963C01F6019381F70193FD42
:100BF000859193FF81917F01882309F4BAC18532E1
:100C000039F493FD859193FF81917F01853229F419
:100C1000B60190E00E941D09E7CF912C212C312CC8
:100C2000FFE1F315D8F08B3279F038F4803279F0A7
:100C30008332A1F4232D20611DC08D3261F08033F9
:100C400069F4232D216016C0832D8260382EE32D98
:100C5000E4603E2E2AC0F32DF8601DC037FC2DC085
:100C600020ED280F2A3040F08E32B9F436FC81C1D5
:100C7000232D2064322E19C036FE06C08AE0989ECD
:100C8000200D1124922E11C0EAE02E9E200D112479
:100C9000222EF32DF0623F2E08C08C3621F4832DD6
:100CA0008068382E02C0883641F4F70193FD8591A3
:100CB00093FF81917F018111B3CF982F9F7D955430
:100CC000933028F40C5F1F4F9FE399830DC0833648
:100CD00031F0833771F0833509F059C021C0F80134
:100CE000808189830E5F1F4F88248394912C530148
:100CF00013C02801F2E04F0E511CF801A080B18012
:100D000036FE03C0692D70E002C06FEF7FEFC501B2
:100D10000E9412094C018201F32DFF773F2E16C06D
:100D2000280122E0420E511CF801A080B18036FE5D
:100D300003C0692D70E002C06FEF7FEFC5010E9414
:100D400000094C01F32DF0683F2E820133FC1BC0DB
:100D5000822D90E088169906B0F4B60180E290E00A
:100D60000E941D092A94F4CFF50137FC859137FEC6
:100D700081915F01B60190E00E941D0921102A9423
:100D800021E0821A91088114910471F7E8C0843639
:100D900011F0893641F5F80137FE07C06081718195
:100DA000828193810C5F1F4F08C060817181072E83
:100DB000000C880B990B0E5F1F4FF32DFF763F2E13
:100DC00097FF09C090958095709561957F4F8F4FE3
:100DD0009F4FF0683F2E2AE030E0A3010E9459099E
:100DE000882E861845C0853731F4232D2F7EB22EEC
:100DF0002AE030E025C0932D997FB92E8F36C1F0BF
:100E000018F4883579F0B5C0803719F0883721F0AB
:100E1000B0C0E92FE061BE2EB4FE0DC0FB2DF46022
:100E2000BF2E09C034FE0AC0292F2660B22E06C08C
:100E300028E030E005C020E130E002C020E132E0EF
:100E4000F801B7FE07C060817181828193810C5FD8
:100E50001F4F06C06081718180E090E00E5F1F4FE0
:100E6000A3010E945909882E8618FB2DFF773F2E7B
:100E700036FE0DC0232D2E7FA22E891458F434FE89
:100E80000BC032FC09C0832D8E7EA82E05C0B82C65
:100E9000A32C03C0B82C01C0B92CA4FE0FC0FE01C6
:100EA000E80DF11D8081803321F49A2D997EA92EC1
:100EB00009C0A2FE06C0B394B39404C08A2D8678FC
:100EC00009F0B394A3FC11C0A0FE06C0B21488F4CC
:100ED000280C922C9B180EC0B21460F4B60180E26C
:100EE00090E00E941D09B394F7CFB21418F42B18A8
:100EF00002C0982C212CA4FE10C0B60180E390E023
:100F00000E941D09A2FE17C0A1FC03C088E790E063
:100F100002C088E590E0B6010CC08A2D867859F0B1
:100F2000A1FE02C08BE201C080E2A7FC8DE2B60107
:100F300090E00E941D09891438F4B60180E390E026
:100F40000E941D099A94F7CF8A94F301E80DF11DD0
:100F50008081B60190E00E941D098110F5CF22200A
:100F600009F442CEB60180E290E00E941D092A9465
:100F7000F6CFF6018681978102C08FEF9FEF2B9607
:100F8000E2E10C94D3090F931F93CF93DF93869FD5
:100F90008001879F100D969F100D1124C8010E949B
:100FA000DF07EC01009729F0A80160E070E00E94E3
:100FB0000B09CE01DF91CF911F910F9108950F93EF
:100FC0001F93CF93DF938230910510F482E090E07D
:100FD000E0911304F091140420E030E0A0E0B0E0D0
:100FE000309719F1408151810281138148175907C7
:100FF000C8F08417950769F4109731F012960C9396
:10100000129713961C9327C0009313041093140493
:1010100022C02115310519F04217530718F49A011F
:10102000BD01EF01DF01F801DBCF21153105F9F03A
:10103000281B390B2430310580F48A819B8161158E
:10104000710521F0FB019383828304C09093140403
:1010500080931304FE01329644C0FE01E20FF31F99
:101060008193919322503109398328833AC020918A
:10107000110430911204232B41F42091020130918C
:101080000301309312042093110420910001309148
:1010900001012115310541F42DB73EB740910401FE
:1010A00050910501241B350BE0911104F0911204BD
:1010B000E217F307A0F42E1B3F0B2817390778F02F
:1010C000AC014E5F5F4F2417350748F04E0F5F1F8E
:1010D00050931204409311048193919302C0E0E075
:1010E000F0E0CF01DF91CF911F910F910895CF9341
:1010F000DF93009709F481C0FC01329713821282BA
:10110000A0911304B0911404109781F420813181CF
:10111000820F931F20911104309112042817390770
:1011200051F5F0931204E093110467C0ED0120E043
:1011300030E0CE17DF0740F44A815B819E01411504
:101140005105F1F0EA01F5CFD383C283408151818B
:10115000840F951FC817D90759F488819981840F86
:10116000951F0296918380838A819B8193838283DA
:101170002115310529F4F0931404E09313043DC0C4
:10118000E901FB83EA8349915991C40FD51FEC17FC
:10119000FD0761F480819181840F951F0296E9011A
:1011A00099838883828193819B838A83E0E0F0E046
:1011B00012968D919C911397009719F0FD01DC0117
:1011C000F7CF8D919C9111979D012E5F3F4F820F1C
:1011D000931F20911104309112042817390769F4E4
:1011E000309729F4109214041092130402C0138251
:1011F0001282B0931204A0931104DF91CF9108954D
:10120000FC010590615070400110D8F780959095D1
:101210008E0F9F1F0895DC0101C06D934150504017
:10122000E0F70895FC016150704001900110D8F77B
:10123000809590958E0F9F1F08950F931F93CF93C6
:10124000DF93FB01238121FD03C08FEF9FEF2CC0B3
:1012500022FF16C0468157812481358142175307EA
:1012600044F4A081B1819D012F5F3F4F31832083E2
:101270008C93268137812F5F3F4F3783268314C09D
:101280008B01EC01FB010084F185E02D0995892B90
:10129000E1F6D80116968D919C91179701961796B5
:1012A0009C938E931697CE01DF91CF911F910F9152
:1012B0000895FA01AA27283051F1203181F1E894EC
:1012C0006F936E7F6E5F7F4F8F4F9F4FAF4FB1E039
:1012D0003ED0B4E03CD0670F781F891F9A1FA11D34
:1012E000680F791F8A1F911DA11D6A0F711D811D35
:1012F000911DA11D20D009F468943F912AE0269FFA
:1013000011243019305D3193DEF6CF010895462F58
:101310004770405D4193B3E00FD0C9F7F6CF462F39
:101320004F70405D4A3318F0495D31FD40524193A2
:1013300002D0A9F7EACFB4E0A6959795879577955F
:101340006795BA95C9F700976105710508959B01E6
:10135000AC010A2E06945795479537952795BA956F
:10136000C9F7620F731F841F951FA01D08952F9248
:101370003F924F925F926F927F928F929F92AF9225
:10138000BF92CF92DF92EF92FF920F931F93CF9372
:10139000DF93CDB7DEB7CA1BDB0B0FB6F894DEBF09
:1013A0000FBECDBF09942A88398848885F846E842F
:1013B0007D848C849B84AA84B984C884DF80EE8079
:1013C000FD800C811B81AA81B981CE0FD11D0FB682
:1013D000F894DEBF0FBECDBFED010895F894FFCFA6
:1013E00000001504200001636D2025640A00656E6D
:1013F000762068756D692025642E25642074656DDE
:101400007065722025642E25642063647320256432
:101410000A006C656420726F6F6D206F6E006C65E2
:101420006420726F6F6D206F6666006C6564206C5F
:101430006976696E67206F6E006C6564206C6976F2
:10144000696E67206F6666006C6564206B69746303
:1014500068656E206F6E006C6564206B69746368EC
:10146000656E206F6666006C6564206261746872E8
:101470006F6F6D206F6E006C6564206261746872BE
:101480006F6F6D206F6666006C656420646F6F72AD
:10149000206F6E006C656420646F6F72206F6666EB
:1014A000006C65642077686F6C65206F6E006C65FA
:1014B000642077686F6C65206F6666006C656420D9
:1014C00077686F6C65206F6E20646F6F72006C655B
:1014D000642077686F6C65206F666620646F6F723A
:1014E0000066616E206F6E0066616E206F6666003A
:00000001FF
