:100000000C9434000C9451000C9451000C94510049
:100010000C9451000C9451000C9451000C9451001C
:100020000C9451000C9451000C9451000C9451000C
:100030000C9451000C9451000C9487030C945100C3
:100040000C9451000C9451000C94F7030C94510043
:100050000C9451000C9451000C9451000C945100DC
:100060000C9451000C94510011241FBECFEFD8E026
:10007000DEBFCDBF14E0A0E0B1E0EEECF6E102C0DF
:1000800005900D92A032B107D9F726E0A0E2B4E0C6
:1000900001C01D92A432B207E1F70E94CB010C947B
:1000A000650B0C940000ECE7F0E0808180648083B5
:1000B000EAE7F0E08081876880830895ECE7F0E06C
:1000C0009081907F90839081892B80838FE193E052
:1000D0000197F1F700C00000EAE7F0E0808180645A
:1000E0008083808184FFFDCF8091780060917900CA
:1000F00070E0762F6627680F711D6F5F7F4F072EA8
:10010000000C880B990B0E94A40520E030E04AEF18
:1001100053E40E94300620E030E040E85AE30E94B9
:10012000300620E030E040E450E40E948E040E945B
:100130006C05CB010895BC01990F880B990B0E94A7
:10014000A40520E030E048EC52E40E94FA042AE9D9
:1001500039E949E95EE30E948D049B01AC0160E04E
:1001600070E080EA91E40E94FA040E946C05CB01E1
:10017000089582E00E945E000E949B000A972CF482
:1001800089E091E00E942907089587E191E00E94AB
:100190002907089560E875E280E090E00E94540429
:1001A0000895249A2C9A2FEF8BE792E921508040F2
:1001B0009040E1F700C00000089548E050E080E082
:1001C0000AC095E09A95F1F700002F5F3F4F283C59
:1001D000310519F426C020E030E01C9BF2CF283C0A
:1001E0003105ECF490EA9A95F1F7880F1C9B0CC04E
:1001F00081600AC095E09A95F1F700002F5F3F4FAC
:10020000283C310519F40DC020E030E01C99F2CFF4
:10021000283C310524F441505109E9F608958FEF47
:1002200008958FEF0895249A2C9A0895249808959C
:100230001C99FECF1C9BFECF1C99FECF08952C98D5
:100240002FEF80EE90E0215080409040E1F700C019
:1002500000002C9A2AE12A95F1F700C00895EF9248
:10026000FF920F931F93CF93DF9381E090E00E9462
:100270005E00EC0180910701882361F0C93CD10543
:100280002CF486E291E00E94290704C080E391E00B
:100290000E9429070E941F010E9416010E94180156
:1002A0000E94DD00182F0E94DD00082F0E94DD0053
:1002B000F82E0E94DD00E82E0E94DD000E9413014E
:1002C000DF93CF931F92EF921F92FF921F920F9393
:1002D0001F921F9389E391E09F938F930E941307CE
:1002E0008DB79EB70C960FB6F8949EBF0FBE8DBF0C
:1002F000DF91CF911F910F91FF90EF900895823081
:1003000069F018F4813031F00895833059F0843069
:1003100069F008958BB1846F8BB908958BB18463B4
:100320008BB908958BB1846B8BB908958BB18467B9
:100330008BB90895823069F018F4813031F0089556
:10034000833059F0843069F008958BB18B708BB98C
:1003500008958BB18B7C8BB908958BB18B748BB95D
:1003600008958BB18B788BB908958AB1846F8AB95F
:100370008BB18B708BB9259A2D980E94CA000E9470
:10038000B2030E94C0030E94DE030E94D1000E94BB
:100390005300789408950E94B501D12C0F2EF2E3FA
:1003A000BF2EF02D0F2EFDECCF2EF02DAA24A394FE
:1003B0000F2EFAE88F2E912CF02D0F2EF4E2EF2E57
:1003C000F3E1FF2EF02D0F2EF4E12F2EF5E03F2E5E
:1003D000F02D0F2EF8E84F2E512CF02D0F2EF4E5B6
:1003E0006F2EFBE07F2EF02D04EB10E080911906BC
:1003F000882309F47BC180911906815080931906E6
:10040000BD9CE0011124CB5DDB4F6FE571E0CE01B7
:100410000E94BF06892B31F45A9A8BE691E00E9424
:10042000290755C169E771E0CE010E94BF06892BFB
:1004300031F45A9886E891E00E94290748C165E99D
:1004400071E0CE010E94BF06892B31F45C9A83EAE9
:1004500091E00E9429073BC163EB71E0CE010E944D
:10046000BF06892B31F45C9882EC91E00E94290749
:100470002EC163ED71E0CE010E94BF06892B31F4DD
:100480005D9A82EE91E00E94290721C163EF71E03D
:10049000CE010E94BF06892B31F45D9883E092E083
:1004A0000E94290714C165E172E0CE010E94BF06D7
:1004B000892B31F45E9A85E292E00E94290707C1F8
:1004C00067E372E0CE010E94BF06892B31F45E988B
:1004D00088E492E00E942907FAC06BE572E0CE0141
:1004E0000E94BF06892B31F45F9A87E692E00E9452
:1004F0002907EDC065E772E0CE010E94BF06892B97
:1005000031F45F9882E892E00E942907E0C061E937
:1005100072E0CE010E94BF06892B41F48A2D0E9411
:100520007F018EE992E00E942907D1C06DEA72E056
:10053000CE010E94BF06892B41F48A2D0E949A01A8
:100540008BEB92E00E942907C2C06BEC72E0CE01F7
:100550000E94BF06892B41F482E00E947F018EE950
:1005600092E00E942907B3C06DED72E0CE010E94B7
:10057000BF06892B41F482E00E949A018BEB92E046
:100580000E942907A4C060EF72E0CE010E94BF065E
:10059000892B41F483E00E947F0186E093E00E9472
:1005A000290795C066E173E0CE010E94BF06892B42
:1005B00041F483E00E949A018DE293E00E942907B2
:1005C00086C06EE373E0CE010E94BF06892B41F422
:1005D00084E00E947F0180E593E00E94290777C0B4
:1005E00060E673E0CE010E94BF06892B41F484E0EF
:1005F0000E949A0183E793E00E94290768C064E89B
:1006000073E0CE010E94BF06892B21F488ECF8012B
:1006100080835DC06BE873E0CE010E94BF06892B2A
:1006200019F4F801108253C063E973E0CE010E940F
:10063000BF06892B21F4F2017182608248C06DE906
:1006400073E0CE010E94BF06892B21F4F201F182F2
:10065000E0823DC068EA73E0CE010E94BF06892BAC
:1006600021F4F4013182208232C064EB73E0CE01C8
:100670000E94BF06892B21F4F401F182E08227C099
:1006800061EC73E0CE010E94BF06892B19F4A092A1
:1006900007011DC066ED73E0CE010E94BF06892BE5
:1006A00019F41092070113C06CEE73E0CE010E94A2
:1006B000BF06892B19F4A092060109C065E074E019
:1006C000CE010E94BF06892B11F41092060191E021
:1006D0009D0D9C9DD12C1124D694D694D694DD0CDE
:1006E0008D2D880F880FD80E9D19D92E8091080165
:1006F000882309F47BCE109208010E942F0180917B
:100700000601882309F472CE0E94B9006FCE1F92B1
:100710000F920FB60F9211242F938F939F93809176
:100720002004909121040196909321048093200449
:100730008091200490912104803B94405CF01092C1
:1007400021041092200481E08093080195B180E299
:10075000892785B99F918F912F910F900FBE0F9090
:100760001F90189584B5826084BD85B5836085BD72
:1007700089EF87BDEEE6F0E0808182608083089596
:1007800084B1866084B9E0E8F0E08081826A808389
:10079000E1E8F0E080818A61808384E293E19093D4
:1007A00089008093880090938B0080938A008FE368
:1007B0009CE990938700809386000895239A539A2A
:1007C000E0EBF0E08081836A8083E1EBF0E0808100
:1007D000816080831092B3001092B4000895E0EC21
:1007E000F0E0908195FFFDCF8093C60008951F92A1
:1007F0000F920FB60F9211242F938F939F93EF9325
:10080000FF938091C6008093240480912304823357
:1008100008F040C0909119069B30E0F590912404B7
:100820009D3021F0909124049A3019F59091220482
:1008300022E3929FF0011124EB5DFB4FE80FF11DC5
:10084000108210922304809119068F5F80931906FD
:100850009F5F8DEC989F812D1124869586958695B6
:10086000880F282F220F220F820F981B90932204AB
:1008700011C0E091220491E0980F9093230490918D
:10088000240422E3E29FF0011124EB5DFB4FE80F0B
:10089000F11D9083FF91EF919F918F912F910F9078
:1008A0000FBE0F901F901895CF92DF92EF92FF929C
:1008B0006B017C0160E070E08FEE93E00E94C8065F
:1008C000E1ECF0E0808188698083E2ECF0E08081F7
:1008D0008660808360E472E48FE090E0A701960177
:1008E0000E949D06DA01C9010197A109B109892F6A
:1008F0009A2FAB2FBB278093C50021502093C400B3
:100900008091C6008FE99FE00197F1F700C00000D9
:10091000FF90EF90DF90CF9008955058BB27AA2703
:100920000E94A5040C94F6050E94E80538F00E9488
:10093000EF0520F039F49F3F19F426F40C94E505F7
:100940000EF4E095E7FB0C94DF05E92F0E94070603
:1009500058F3BA17620773078407950720F079F4F4
:10096000A6F50C9429060EF4E0950B2EBA2FA02DB7
:100970000B01B90190010C01CA01A0011124FF274C
:10098000591B99F0593F50F4503E68F11A16F04047
:10099000A22F232F342F4427585FF3CF4695379546
:1009A0002795A795F0405395C9F77EF41F16BA0B0B
:1009B000620B730B840BBAF09150A1F0FF0FBB1FB9
:1009C000661F771F881FC2F70EC0BA0F621F731F02
:1009D000841F48F4879577956795B795F7959E3F5F
:1009E00008F0B0CF9395880F08F09927EE0F9795F0
:1009F000879508950E940E050C94F6050E94EF0558
:100A000058F00E94E80540F029F45F3F29F00C946B
:100A1000DF0551110C942A060C94E5050E94070687
:100A200068F39923B1F3552391F3951B550BBB271D
:100A3000AA2762177307840738F09F5F5F4F220F62
:100A4000331F441FAA1FA9F335D00E2E3AF0E0E859
:100A500032D091505040E695001CCAF72BD0FE2FA3
:100A600029D0660F771F881FBB1F26173707480737
:100A7000AB07B0E809F0BB0B802DBF01FF279358EF
:100A80005F4F3AF09E3F510578F00C94DF050C94CF
:100A90002A065F3FE4F3983ED4F3869577956795F1
:100AA000B795F7959F5FC9F7880F911D9695879524
:100AB00097F90895E1E0660F771F881FBB1F621743
:100AC00073078407BA0720F0621B730B840BBA0B01
:100AD000EE1F88F7E09508950E9473056894B111A0
:100AE0000C942A0608950E940F0688F09F5798F0EC
:100AF000B92F9927B751B0F0E1F0660F771F881F23
:100B0000991F1AF0BA95C9F714C0B13091F00E943C
:100B10002906B1E008950C942906672F782F8827BD
:100B2000B85F39F0B93FCCF3869577956795B39563
:100B3000D9F73EF490958095709561957F4F8F4FD2
:100B40009F4F0895E89409C097FB3EF490958095D7
:100B5000709561957F4F8F4F9F4F9923A9F0F92F83
:100B600096E9BB279395F695879577956795B79501
:100B7000F111F8CFFAF4BB0F11F460FF1BC06F5FE7
:100B80007F4F8F4F9F4F16C0882311F096E911C0F9
:100B9000772321F09EE8872F762F05C0662371F01A
:100BA00096E8862F70E060E02AF09A95660F771F2E
:100BB000881FDAF7880F9695879597F9089597F922
:100BC0009F6780E870E060E008959FEF80EC0895F3
:100BD00000240A941616170618060906089500241C
:100BE0000A9412161306140605060895092E039496
:100BF000000C11F4882352F0BB0F40F4BF2B11F40A
:100C000060FF04C06F5F7F4F8F4F9F4F089557FD68
:100C10009058440F551F59F05F3F71F04795880F6A
:100C200097FB991F61F09F3F79F087950895121601
:100C300013061406551FF2CF4695F1DF08C01616AD
:100C400017061806991FF1CF86957105610508945E
:100C50000895E894BB2766277727CB0197F9089575
:100C60000E9443060C94F6050E94E80538F00E94A5
:100C7000EF0520F0952311F00C94DF050C94E505A9
:100C800011240C942A060E94070670F3959FC1F365
:100C9000950F50E0551F629FF001729FBB27F00D2A
:100CA000B11D639FAA27F00DB11DAA1F649F66277F
:100CB000B00DA11D661F829F2227B00DA11D621FCE
:100CC000739FB00DA11D621F839FA00D611D221F88
:100CD000749F3327A00D611D231F849F600D211D6C
:100CE000822F762F6A2F11249F5750409AF0F1F0EF
:100CF00088234AF0EE0FFF1FBB1F661F771F881F58
:100D000091505040A9F79E3F510580F00C94DF05AB
:100D10000C942A065F3FE4F3983ED4F386957795CA
:100D20006795B795F795E7959F5FC1F7FE2B880FFD
:100D3000911D9695879597F90895A1E21A2EAA1B01
:100D4000BB1BFD010DC0AA1FBB1FEE1FFF1FA2177B
:100D5000B307E407F50720F0A21BB30BE40BF50B78
:100D6000661F771F881F991F1A9469F76095709501
:100D7000809590959B01AC01BD01CF010895FB01C9
:100D8000DC018D91019080190110D9F3990B089520
:100D90000F931F93CF93DF93009731F46115710583
:100DA00019F480E090E03AC08B01EC016EE070E055
:100DB00081E090E00E943A09FC01892B91F380E8E0
:100DC00083830115110571F01387028781E88383FE
:100DD00080911A0690911B06892B21F4F0931B0633
:100DE000E0931A062097C9F0D187C087838182607B
:100DF000838380911C0690911D06892B71F4F093DA
:100E00001D06E0931C0680911E0690911F06892BFB
:100E100021F4F0931F06E0931E06CF01DF91CF91DE
:100E20001F910F910895A0E0B0E0E9E1F7E00C9484
:100E30003E0BAE014B5F5F4FFA0161917191AF01C3
:100E400080911C0690911D060E945907E2E00C94C7
:100E50005A0B0F931F93CF93DF93E0911C06F091F1
:100E60001D06238121FF1BC08C01D0E0C0E0F801EA
:100E700081918F0160911C0670911D06DB0118960F
:100E8000ED91FC911997882331F00995892B79F31D
:100E9000DFEFCFEFECCF8AE00995892B19F08FEFC8
:100EA0009FEF02C08D2F9C2FDF91CF911F910F914B
:100EB0000895ABE0B0E0EFE5F7E00C942E0B6C0189
:100EC0007B018A01FC0117821682838181FFCCC1DC
:100ED000CE0101963C01F6019381F70193FD8591C6
:100EE00093FF81917F01882309F4BAC1853239F4D7
:100EF00093FD859193FF81917F01853229F4B6019D
:100F000090E00E94940AE7CF912C212C312CFFE134
:100F1000F315D8F08B3279F038F4803279F08332DF
:100F2000A1F4232D20611DC08D3261F0803369F45E
:100F3000232D216016C0832D8260382EE32DE460BE
:100F40003E2E2AC0F32DF8601DC037FC2DC020EDC9
:100F5000280F2A3040F08E32B9F436FC81C1232D9F
:100F60002064322E19C036FE06C08AE0989E200DFD
:100F70001124922E11C0EAE02E9E200D1124222E63
:100F8000F32DF0623F2E08C08C3621F4832D80684B
:100F9000382E02C0883641F4F70193FD859193FF06
:100FA00081917F018111B3CF982F9F7D955493300C
:100FB00028F40C5F1F4F9FE399830DC0833631F0F7
:100FC000833771F0833509F059C021C0F801808161
:100FD00089830E5F1F4F88248394912C530113C083
:100FE0002801F2E04F0E511CF801A080B18036FEBE
:100FF00003C0692D70E002C06FEF7FEFC5010E9452
:10100000890A4C018201F32DFF773F2E16C028017B
:1010100022E0420E511CF801A080B18036FE03C0D0
:10102000692D70E002C06FEF7FEFC5010E94770A63
:101030004C01F32DF0683F2E820133FC1BC0822D42
:1010400090E088169906B0F4B60180E290E00E9424
:10105000940A2A94F4CFF50137FC859137FE8191EB
:101060005F01B60190E00E94940A21102A9421E0C9
:10107000821A91088114910471F7E8C0843611F046
:10108000893641F5F80137FE07C0608171818281A0
:1010900093810C5F1F4F08C060817181072E000C87
:1010A000880B990B0E5F1F4FF32DFF763F2E97FF96
:1010B00009C090958095709561957F4F8F4F9F4F98
:1010C000F0683F2E2AE030E0A3010E94D00A882E6B
:1010D000861845C0853731F4232D2F7EB22E2AE0A5
:1010E00030E025C0932D997FB92E8F36C1F018F4CA
:1010F000883579F0B5C0803719F0883721F0B0C055
:10110000E92FE061BE2EB4FE0DC0FB2DF460BF2EB2
:1011100009C034FE0AC0292F2660B22E06C028E07E
:1011200030E005C020E130E002C020E132E0F8010B
:10113000B7FE07C060817181828193810C5F1F4F70
:1011400006C06081718180E090E00E5F1F4FA301B7
:101150000E94D00A882E8618FB2DFF773F2E36FE80
:101160000DC0232D2E7FA22E891458F434FE0BC0FF
:1011700032FC09C0832D8E7EA82E05C0B82CA32C6E
:1011800003C0B82C01C0B92CA4FE0FC0FE01E80DAD
:10119000F11D8081803321F49A2D997EA92E09C0FA
:1011A000A2FE06C0B394B39404C08A2D867809F0D9
:1011B000B394A3FC11C0A0FE06C0B21488F4280C9E
:1011C000922C9B180EC0B21460F4B60180E290E03D
:1011D0000E94940AB394F7CFB21418F42B1802C0EB
:1011E000982C212CA4FE10C0B60180E390E00E9450
:1011F000940AA2FE17C0A1FC03C088E790E002C0D9
:1012000088E590E0B6010CC08A2D867859F0A1FEE1
:1012100002C08BE201C080E2A7FC8DE2B60190E043
:101220000E94940A891438F4B60180E390E00E9489
:10123000940A9A94F7CF8A94F301E80DF11D808106
:10124000B60190E00E94940A8110F5CF222009F4A3
:1012500042CEB60180E290E00E94940A2A94F6CF32
:10126000F6018681978102C08FEF9FEF2B96E2E116
:101270000C944A0B0F931F93CF93DF93869F8001AB
:10128000879F100D969F100D1124C8010E945609CA
:10129000EC01009729F0A80160E070E00E94820A4A
:1012A000CE01DF91CF911F910F9108950F931F935E
:1012B000CF93DF938230910510F482E090E0E091CB
:1012C0002206F091230620E030E0A0E0B0E0309765
:1012D00019F1408151810281138148175907C8F0E3
:1012E0008417950769F4109731F012960C931297B2
:1012F00013961C9327C0009322061093230622C046
:101300002115310519F04217530718F49A01BD0150
:10131000EF01DF01F801DBCF21153105F9F0281BC2
:10132000390B2430310580F48A819B816115710568
:1013300021F0FB019383828304C090932306809362
:101340002206FE01329644C0FE01E20FF31F819394
:10135000919322503109398328833AC02091200685
:1013600030912106232B41F4209102013091030199
:101370003093210620932006209100013091010135
:101380002115310541F42DB73EB74091040150912C
:101390000501241B350BE0912006F0912106E21790
:1013A000F307A0F42E1B3F0B2817390778F0AC0188
:1013B0004E5F5F4F2417350748F04E0F5F1F509365
:1013C0002106409320068193919302C0E0E0F0E073
:1013D000CF01DF91CF911F910F910895CF93DF93AC
:1013E000009709F481C0FC01329713821282A09108
:1013F0002206B0912306109781F420813181820F5B
:10140000931F20912006309121062817390751F5A6
:10141000F0932106E093200667C0ED0120E030E064
:10142000CE17DF0740F44A815B819E0141155105CB
:10143000F1F0EA01F5CFD383C28340815181840F5B
:10144000951FC817D90759F488819981840F951F72
:101450000296918380838A819B8193838283211565
:10146000310529F4F0932306E09322063DC0E901FB
:10147000FB83EA8349915991C40FD51FEC17FD07EF
:1014800061F480819181840F951F0296E90199830F
:101490008883828193819B838A83E0E0F0E01296C7
:1014A0008D919C911397009719F0FD01DC01F7CF06
:1014B0008D919C9111979D012E5F3F4F820F931F3D
:1014C00020912006309121062817390769F43097BA
:1014D00029F4109223061092220602C0138212826F
:1014E000B0932106A0932006DF91CF910895FC01CF
:1014F0000590615070400110D8F7809590958E0F3F
:101500009F1F0895DC0101C06D9341505040E0F7EA
:101510000895FC016150704001900110D8F780954A
:1015200090958E0F9F1F08950F931F93CF93DF9376
:10153000FB01238121FD03C08FEF9FEF2CC022FF11
:1015400016C046815781248135814217530744F4E0
:10155000A081B1819D012F5F3F4F318320838C9308
:10156000268137812F5F3F4F3783268314C08B013D
:10157000EC01FB010084F185E02D0995892BE1F652
:10158000D80116968D919C911797019617969C936A
:101590008E931697CE01DF91CF911F910F910895F1
:1015A000FA01AA27283051F1203181F1E8946F9394
:1015B0006E7F6E5F7F4F8F4F9F4FAF4FB1E03ED03A
:1015C000B4E03CD0670F781F891F9A1FA11D680FD8
:1015D000791F8A1F911DA11D6A0F711D811D911D0B
:1015E000A11D20D009F468943F912AE0269F112480
:1015F0003019305D3193DEF6CF010895462F4770E4
:10160000405D4193B3E00FD0C9F7F6CF462F4F703E
:10161000405D4A3318F0495D31FD4052419302D09C
:10162000A9F7EACFB4E0A695979587957795679542
:10163000BA95C9F700976105710508959B01AC0142
:101640000A2E06945795479537952795BA95C9F769
:10165000620F731F841F951FA01D08952F923F9244
:101660004F925F926F927F928F929F92AF92BF92B2
:10167000CF92DF92EF92FF920F931F93CF93DF935E
:10168000CDB7DEB7CA1BDB0B0FB6F894DEBF0FBEBB
:10169000CDBF09942A88398848885F846E847D8408
:1016A0008C849B84AA84B984C884DF80EE80FD800A
:1016B0000C811B81AA81B981CE0FD11D0FB6F89480
:0E16C000DEBF0FBECDBFED010895F894FFCF41
:1016CE0000002406200001010162617468726F6FD0
:1016DE006D203A206F6E0062617468726F6F6D20BC
:1016EE003A206F6666006C7578203A206F66660049
:1016FE006C7578203A206F6E00656E76203A206801
:10170E00756D692025642E25642074656D70657273
:10171E002025642E2564206C75782025640A006CC3
:10172E00656420726F6F6D206F6E006C6564203A79
:10173E0020726F6F6D206F6E006C656420726F6F1C
:10174E006D206F6666006C6564203A20726F6F6D57
:10175E00206F6666006C6564206C6976696E672022
:10176E006F6E006C6564203A206C6976696E672036
:10177E006F6E006C6564206C6976696E67206F66AB
:10178E0066006C6564203A206C6976696E67206F1E
:10179E006666006C6564206B69746368656E206FA5
:1017AE006E006C6564203A206B69746368656E2008
:1017BE006F6E006C6564206B69746368656E206F74
:1017CE006666006C6564203A206B69746368656EAA
:1017DE00206F6666006C65642062617468726F6F5C
:1017EE006D206F6E006C6564203A206261746872C1
:1017FE006F6F6D206F6E006C65642062617468722D
:10180E006F6F6D206F6666006C6564203A206261B2
:10181E007468726F6F6D206F6666006C656420640D
:10182E006F6F72206F6E006C6564203A20646F6F6C
:10183E0072206F6E006C656420646F6F72206F662D
:10184E0066006C6564203A20646F6F72206F666666
:10185E00006C65642077686F6C65206F6E006C6538
:10186E0064203A2077686F6C65206F6E006C65643B
:10187E002077686F6C65206F6666006C6564203A31
:10188E002077686F6C65206F6666006C65642077E4
:10189E00686F6C65206F6E206175746F006C656487
:1018AE002077686F6C65206F6666206175746F00B7
:1018BE006C65642077686F6C65206F6E2062617452
:1018CE0068726F6F6D006C6564203A2077686F6C7C
:1018DE006562206F6E006C65642077686F6C6520A2
:1018EE006F66662062617468726F6F6D006C6564FE
:1018FE00203A2077686F6C6562206F6666006C65B3
:10190E00642077686F6C65206F6E20646F6F720055
:10191E006C6564203A2077686F6C6564206F6E008A
:10192E006C65642077686F6C65206F666620646FE7
:10193E006F72006C6564203A2077686F6C65642066
:10194E006F66660066616E206F6E0066616E206F58
:10195E00666600646F6F72206F70656E00646F6FE5
:10196E007220636C6F73650077696E646F77206F9A
:10197E0070656E0077696E646F7720636C6F736548
:10198E0000646F6F724C65644175746F537461744B
:10199E00657472756500646F6F724C656441757421
:1019AE006F537461746566616C736500626174680F
:1019BE00726F6F6D4C65644175746F5374617465AD
:1019CE00747275650062617468726F6F6D4C6564D8
:1019DE004175746F537461746566616C7365000054
:00000001FF
