:100000000C9434000C9451000C9451000C94510049
:100010000C9451000C9451000C9451000C9451001C
:100020000C9451000C9451000C9451000C9451000C
:100030000C9451000C9451000C94A1010C945100AB
:100040000C9451000C9451000C9451000C945100EC
:100050000C9451000C9451000C9451000C945100DC
:100060000C9451000C94510011241FBECFEFD8E026
:10007000DEBFCDBF11E0A0E0B1E0EEE2F4E002C0EF
:1000800005900D92A831B107D9F721E0A8E1B1E0C0
:1000900001C01D92AD35B207E1F70E949E010C949C
:1000A00015020C94000087B1886387B9449AE8E18F
:1000B000F1E088E391E01192119211921192E81708
:1000C000F907C9F708954F925F926F927F928F92CE
:1000D0009F92AF92BF92CF92DF92EF92FF920F93D7
:1000E0001F93CF93DF9347E150E008E311E068E10D
:1000F00071E0812C912C5401B39439C0819191917C
:10010000A191B19180959095A095B095042E04C0D1
:10011000B695A795979587950A94D2F7809590956F
:10012000A095B095BB2775016401022E04C0CC0CCC
:10013000DD1CEE1CFF1C0A94D2F78C299D29AE29E8
:10014000BF2989939993A993B9932F5F3F4F283083
:100150003105A1F62FEF81EE94E0215080409040D0
:10016000E1F700C000004150510908F446C0502E8C
:10017000412E762E672EC8E1D1E0E8E3F1E020E0E1
:1001800030E0BCCF81919191A191B19180959095F2
:10019000A095B095042E04C0880F991FAA1FBB1FFD
:1001A0000A94D2F780959095A095B095BB2746010B
:1001B0005701022E04C0880C991CAA1CBB1C0A946F
:1001C000D2F788299929AA29BB2989939993A993B8
:1001D000B9932F5F3F4F28303105A1F68FEF91EE95
:1001E00024E0815090402040E1F700C000004F5FC4
:1001F0005F4F4831510539F40DC040E050E0C12C4B
:10020000D12C7601F394C72DD62DE52DF42D20E0C9
:1002100030E0B8CFDF91CF911F910F91FF90EF9019
:10022000DF90CF90BF90AF909F908F907F906F9016
:100230005F904F9008950E945300E0E0F1E00F2E90
:10024000F0E1AF2EF1E0BF2EF02D68E071E028E381
:1002500031E008E011E0A9018191D501ED905D0147
:10026000EB01F990BE0190E0A0E0B0E09F6FAF6FAE
:10027000BF6FBA2FA92F982F88278E29BA2FA92FA1
:10028000982F88278F29EA0189939993A993B99385
:10029000AE01E017F10701F7E8E1F1E080E090E05E
:1002A000C12CD12C7601F394D9014D915D916D91C2
:1002B0007D919D0146015701082E04C0880C991CB0
:1002C000AA1CBB1C0A94D2F7482959296A297B2900
:1002D000419351936193719301968830910521F771
:1002E0000E94070278940E946300FDCFCF92DF92B4
:1002F000EF92FF926B017C01449820E030E045983A
:10030000439848B1D701C601022E04C0B695A795FF
:10031000979587950A94D2F78170880F880F880F78
:10032000842B88B9459A2F5F3F4F2032310539F72A
:10033000449AFF90EF90DF90CF9008950E941B01A8
:10034000FFCF1F920F920FB60F9211242F933F935E
:100350004F935F936F937F938F939F93AF93BF93CD
:10036000EF93FF93809158019091590101969093DA
:100370005901809358018091580190915901883E0C
:100380009340D4F0109259011092580180915C0171
:100390008F5F80935C0180915C018C3368F01092D8
:1003A0005C0180915B018F5F80935B0180915B01B9
:1003B0008C3310F010925B0180915A018F5F809313
:1003C0005A0180915A01883010F010925A01E09140
:1003D0005A01F0E0EE0FFF1FEE0FFF1FE85EFE4F29
:1003E00060817181828193810E947601FF91EF91FA
:1003F000BF91AF919F918F917F916F915F914F913D
:100400003F912F910F900FBE0F901F90189584B5BC
:10041000826084BD85B5836085BD89EF87BDEEE6CA
:0E042000F0E08081826080830895F894FFCF21
:10042E00E7DBE7FF81FFDFC3C5EDD5FDDBC3DBC334
:08043E00C7EFD7FF83EFEFEFDA
:00000001FF
